{
  "contractName": "Election",
  "abi": [
    {
      "constant": true,
      "inputs": [],
      "name": "candidatesCount",
      "outputs": [
        {
          "name": "",
          "type": "uint256"
        }
      ],
      "payable": false,
      "stateMutability": "view",
      "type": "function"
    },
    {
      "constant": true,
      "inputs": [
        {
          "name": "",
          "type": "uint256"
        }
      ],
      "name": "candidates",
      "outputs": [
        {
          "name": "id",
          "type": "uint256"
        },
        {
          "name": "name",
          "type": "string"
        },
        {
          "name": "voteCount",
          "type": "uint256"
        }
      ],
      "payable": false,
      "stateMutability": "view",
      "type": "function"
    },
    {
      "constant": true,
      "inputs": [
        {
          "name": "",
          "type": "address"
        }
      ],
      "name": "voters",
      "outputs": [
        {
          "name": "",
          "type": "bool"
        }
      ],
      "payable": false,
      "stateMutability": "view",
      "type": "function"
    },
    {
      "inputs": [],
      "payable": false,
      "stateMutability": "nonpayable",
      "type": "constructor"
    },
    {
      "constant": false,
      "inputs": [
        {
          "name": "candidateid",
          "type": "uint256"
        }
      ],
      "name": "addVote",
      "outputs": [],
      "payable": false,
      "stateMutability": "nonpayable",
      "type": "function"
    }
  ],
  "bytecode": "0x6060604052341561000f57600080fd5b6100606040805190810160405280600a81526020017f43616e64696461746531000000000000000000000000000000000000000000008152506100b6640100000000026102b6176401000000009004565b6100b16040805190810160405280600a81526020017f43616e64696461746532000000000000000000000000000000000000000000008152506100b6640100000000026102b6176401000000009004565b6101d7565b600260008154809291906001019190505550606060405190810160405280600254815260200182815260200160008152506000806002548152602001908152602001600020600082015181600001556020820151816001019080519060200190610121929190610132565b506040820151816002015590505050565b828054600181600116156101000203166002900490600052602060002090601f016020900481019282601f1061017357805160ff19168380011785556101a1565b828001600101855582156101a1579182015b828111156101a0578251825591602001919060010190610185565b5b5090506101ae91906101b2565b5090565b6101d491905b808211156101d05760008160009055506001016101b8565b5090565b90565b610403806101e66000396000f300606060405260043610610062576000357c0100000000000000000000000000000000000000000000000000000000900463ffffffff1680630383badc146100675780632d35a8a21461008a5780633477ee2e146100b3578063a3ec138d1461017a575b600080fd5b341561007257600080fd5b61008860048080359060200190919050506101cb565b005b341561009557600080fd5b61009d610267565b6040518082815260200191505060405180910390f35b34156100be57600080fd5b6100d4600480803590602001909190505061026d565b60405180848152602001806020018381526020018281038252848181546001816001161561010002031660029004815260200191508054600181600116156101000203166002900480156101695780601f1061013e57610100808354040283529160200191610169565b820191906000526020600020905b81548152906001019060200180831161014c57829003601f168201915b505094505050505060405180910390f35b341561018557600080fd5b6101b1600480803573ffffffffffffffffffffffffffffffffffffffff16906020019091905050610296565b604051808215151515815260200191505060405180910390f35b6000811180156101dd57506002548111155b15156101e857600080fd5b60018060003373ffffffffffffffffffffffffffffffffffffffff1673ffffffffffffffffffffffffffffffffffffffff16815260200190815260200160002060006101000a81548160ff0219169083151502179055506000808281526020019081526020016000206002016000815480929190600101919050555050565b60025481565b600060205280600052604060002060009150905080600001549080600101908060020154905083565b60016020528060005260406000206000915054906101000a900460ff1681565b600260008154809291906001019190505550606060405190810160405280600254815260200182815260200160008152506000806002548152602001908152602001600020600082015181600001556020820151816001019080519060200190610321929190610332565b506040820151816002015590505050565b828054600181600116156101000203166002900490600052602060002090601f016020900481019282601f1061037357805160ff19168380011785556103a1565b828001600101855582156103a1579182015b828111156103a0578251825591602001919060010190610385565b5b5090506103ae91906103b2565b5090565b6103d491905b808211156103d05760008160009055506001016103b8565b5090565b905600a165627a7a72305820400b0aed17527f9e588e7522e476b75e424a6ed68139c95312f4755fbf2739900029",
  "source": "pragma solidity ^0.4.11;\n\ncontract Election {\n   struct Candidate {\n\t  uint id;\n\t\tstring name;\n\t\tuint voteCount;\n\t }\n\t mapping(uint => Candidate) public candidates;\n\t mapping(address => bool) public voters;\n\t uint public candidatesCount;\n\n\t function Election () public {\n\t    addCandidate(\"Candidate1\");\n\t\t\taddCandidate(\"Candidate2\");\n\t }\n\n\t function addCandidate(string _name) private {\n\t candidatesCount++;\n\t candidates[candidatesCount] = Candidate(candidatesCount,_name,0);\n\t }\n\n\t function addVote (uint candidateid) public {\n\t//  require(!voters[msg.sender]);\n\t require(candidateid > 0 && candidateid <= candidatesCount);\n\t voters[msg.sender] = true;\n\t candidates[candidateid].voteCount++;\n\t }\n}",
  "sourcePath": "/home/anurag/vishal/VotingDApp/contracts/Election.sol",
  "compiler": {
    "name": "solc",
    "version": "0.4.19+commit.c4cbbb05.Emscripten.clang"
  },
  "schemaVersion": "2.0.0",
  "updatedAt": "2019-03-10T07:38:38.841Z"
}